:02000000F32FDC
:10099E00F125080070250800522570250800F50085
:1009AE007508412708005C26F30073080800F5005F
:1009BE004425D0304127750841270800F7007708F5
:1009CE00DE247608D624D124080083120313C21421
:1009DE00C215420886000800F60076080D255C2632
:1009EE00F700D3247708080083160313051085102B
:1009FE008312031385100510080083120313C21609
:100A0E0042088600C201420886000800F50044250F
:100A1E00D0304127750841278125D1304127080064
:100A2E0083120313C201421542088600C201420816
:100A3E0086000800831203134216421542088600F0
:100A4E00C201420886000800F12506308312031306
:100A5E00A400A300A200BE01BF01B926EC24080029
:100A6E000030F324F9007908F80007300310F80C71
:100A7E00FF3E031D3D2D780C08008316031305144D
:100A8E008514492D4A2D00008316031385104F2D12
:100A9E00502D00000800831603130510562D8316E3
:100AAE00031385145A2D8316031305145E2D5F2D23
:100ABE0000000800831603130510652D831603131B
:100ACE008510692D8316031305146D2D6E2D0000F0
:100ADE000800831603130510742D83160313851057
:100AEE00782D8316031305147C2D8316031385149A
:100AFE00802D0800831603130510852D831603130E
:100B0E008514892D8316031305148D2D8316031357
:100B1E008510912D080083120313A901A90A0A302A
:100B2E00A800A7010430A6000830A5000530A400D7
:100B3E000930A3000630A200BF01BE013E17080017
:100B4E000030DE240030D6243030D6241230D624A5
:100B5E002830D6240730D6241030D624D124143091
:100B6E00DE240030D6240030D624D1240800F30031
:100B7E007308F00004300310F00CFF3E031DC22D6D
:100B8E000F307005F10073080F39F20003300310B7
:100B9E00F20DFF3E031DCE2D0310720D71040800E1
:100BAE00F800831203133008A2002F08A3002E08AA
:100BBE00A4002D08A5002C08A6002B08A7002A08C3
:100BCE00A8007808A9003108BF003208BE00B92677
:100BDE00EC2408002230F000F101700884000A3085
:100BEE00831380000130FF007F08F0070130FF0003
:100BFE007F08F10708307102031C062E072EF42D14
:100C0E0083120313BE01BF010800F10071088400B6
:100C1E000008F00007300310F00CFF3E031D122EEB
:100C2E00701C1A2E1B2E272E710884000008F0004F
:100C3E007007FF00710884007F0880002125322E86
:100C4E00710884000008F0007007FF00710884002E
:100C5E007F088000172508000F30F324F90079086B
:100C6E00F80007300310F80CFF3E031D392E781CD8
:100C7E00412E422E5A2EF901F6010F30E524791439
:100C8E007908F6000F30E5244C2E4D2E00000F3063
:100C9E00F324F9007918542E552E5A2EF6010F30E2
:100CAE00E52403145B2E03100800F101F2018316F4
:100CBE00031305108514632E642E00008316031390
:100CCE000514692E83120313050C0139F000720806
:100CDE00073C013E742E0310F00DFF3E031D722ED5
:100CEE0070087104F1007B2E0130FF007F08F207BF
:100CFE0008307202031C842E852E5E2E71080800A9
:100D0E00FC26FD01FD0A7D0803198E2E8F2EA02EC6
:100D1E00831203134108FC0001300310FC0CFF3E4C
:100D2E00031D942E7C189C2E9D2E9F2E9627A02E52
:100D3E002B2583120313051DA52EA62EAF2E0519E6
:100D4E00A92EAA2EA62EFD019225B926EC248A2EB6
:100D5E00851DB22EB32E8A2E8519B62EB72EB32E22
:100D6E00882E00282930F300831203133F08F60063
:100D7E003E08F700F40176300C26F201F20AF50176
:100D8E0073088400831300087206031DCF2ED02E25
:100D9E00D22E2125D32E17250130FF007F08F20712
:100DAE000130FF007F08F50709307502031CE02EA5
:100DBE00E12EC72E7308840083130008031DE82E4E
:100DCE00E92EEB2E2125EC2E172577300C2601303F
:100DDE00F3020130FF007F08F40708307402031C91
:100DEE00F92EFA2EC22E04250800073083120313A3
:100DFE009F002F308316031385008601DF3081009C
:100E0E00A00183120313C20142088600C301C1016F
:100E1E00FB24CF243725031C152F162F2A2FA72589
:100E2E000030F324FB007B08FA0007300310FA0CA5
:100E3E00FF3E031D1D2F7A1C252F262F402F8312B8
:100E4E000313C114402F3326031C2E2F2F2F402F98
:100E5E00A7250F30F324FB007B08FA0007300310A0
:100E6E00FA0CFF3E031D362F7A1C3E2F3F2F402FCC
:100E7E00262F0800F200F401831603130510472FE6
:100E8E00740AFF007208F000F101502F0310F00DEC
:100E9E00F10DFF0B4D2FF01B552F592F83160313FA
:100EAE0085145C2F8316031385105D2F8316031391
:100EBE000514612F622F00000130FF007F08F40738
:100ECE0008307402031C6C2F6D2F432F83160313EF
:100EDE0005108514722F732F00008316031305144B
:100EEE00782F792F0000FF30F300882F8312031321
:100EFE008518822F832F852FF301882F0000013054
:100F0E00F3027308031D8C2F8D2F7D2F7308031D85
:100F1E00912F922F952F8312031341140800003046
:100F2E00F32483120313BD003D0840060319A02FBE
:100F3E00A12FF22F00300D25DA2483120313BD00EA
:100F4E006125DA2483120313BB006125DA24831290
:100F5E000313BC00D324831203133D080F39B300CF
:100F6E003D08BE250F3983120313B6003B080F3917
:100F7E00B4003B08BE250F3983120313B7003C089B
:100F8E000F39B5003C08BE250F3983120313B80084
:100F9E003D1CD22FD32FD72FB9012430BA00DA2F10
:100FAE002430B900BA013508AA000A30AB00370860
:100FBE00AC003408AD000A30AE003608AF0033087E
:100FCE00B0003908B1003A08B2003808D7258312AC
:100FDE0003133D08C000080083120313BE01BF01B6
:100FEE00C001C101C201C30183160313A001830115
:020FFE00872E3C
:02400E00183F59
:00000001FF
