:02000000F02FDF
:1005F00008000800080094230800762394230800CC
:10060000C92375260C230800F40074083A27080053
:100610008D25F30073080800B514B515350886005C
:100620000800831605108510831285100510080038
:10063000F4006823D0303A2774083A270800F600FF
:100640007608182375080423FB220800F5007508B6
:1006500038238D25F600FD2276080800B5163508EA
:100660008600DF30FF007F08B505350886000800EA
:10067000F4006823D0303A2774083A27A523D130F4
:100680003A2708003516351535088600FB30FF007F
:100690007F08B50535088600080000302623F800DD
:1006A0007808F70007300310F70CFF3E031D532BAB
:1006B000770C0800EF30FF007F08B50535153508C9
:1006C0008600FB30FF007F08B5053508860008006E
:1006D00083160313051485146D2B6E2B00008316EF
:1006E00003138510732B742B00000800831603136B
:1006F00005107A2B8316031385147E2B83160313A0
:100700000514822B832B00000800831603130510A9
:10071000892B8316031385108D2B83160313051461
:10072000912B922B00000800831603130510982BC1
:100730008316031385109C2B831603130514A02B1B
:10074000831603138514A42B0800831603130510C6
:10075000A92B831603138514AD2B831603130514DD
:10076000B12B831603138510B52B0800A901A90A24
:100770000A30A800A7010430A6000830A500053003
:10078000A4000930A3000630A200B201B101311764
:1007900008002230F000F101700884000A30831351
:1007A00080000130FF007F08F0070130FF007F0864
:1007B000F10708307102031CCC2BB101B201080013
:1007C000C9233308F80001300310F80CFF3E031D65
:1007D000E42B781CF32B0630A400A300A200B10187
:1007E000B20175260800331C08000930EC2BF30019
:1007F0007308F00004300310F00CFF3E031DFB2BC8
:100800000F307005F10073080F39F2000330031048
:10081000F20DFF3E031D072C0310720D710408003A
:1008200007309F002F30831685008601DF3081005E
:10083000A3018312B501350886001030B600831677
:10084000A4018312B301112300234D23031C2D2C7B
:10085000831203133616AE2608001126031C080067
:100860002B2C1430262383120313B4000830A80065
:100870003408F7230F3983120313A30034080F3908
:10088000A2007526F426F8223608F800033003107B
:10089000F80CFF3E031D472C781C382C3408F5005B
:1008A00014301F230800073083120313A800A3018C
:1008B00083162408F8000310780C01398312A20073
:1008C0007526F426361C692C0230FF007F0883163B
:1008D000A40683123608F80003300310F80CFF3E1C
:1008E000031D6D2C78180800572C04302623F900BE
:1008F000043083120313A8007908F7230F398312F9
:100900000313A30079080F39A2007526F426F822F4
:100910003608F80003300310F80CFF3E031D8B2C43
:10092000781C7C2C7908F50004301F230800023065
:100930002623F900023083120313A8007908F72355
:100940000F3983120313A30079080F39A20075260B
:10095000F426F8223608F80003300310F80CFF3EA6
:10096000031DAD2C781C9E2C7908F50002301F2346
:10097000080001302623F900033083120313A80076
:100980007908F7230F3983120313A30079080F396D
:10099000A2007526F426F8223608F800033003106A
:1009A000F80CFF3E031DCF2C781CC02C7908F500F5
:1009B00001301F23080001302623F900053083127F
:1009C0000313A8007908F7230F3983120313A30038
:1009D00079080F39A2007526F426F8223608F800A7
:1009E00003300310F80CFF3E031DF12C781CE22CA1
:1009F0007908F50005301F23080001302623F9008F
:100A0000063083120313A8007908F7230F398312E5
:100A10000313A30079080F39A2007526F426F822E3
:100A20003608F80003300310F80CFF3E031D132DA9
:100A3000781C042D7908F50006301F230800FC00FF
:100A40002D2DE3259724B92431246625FA22752417
:100A5000DB24FD245324F92208007C08FA00FB0162
:100A60007B08003A0319352D402D7A08003A031906
:100A7000212D013A0319272D033A03192B2D402D5F
:100A80000800F100710884000008F000073003102E
:100A9000F00CFF3E031D472D701C5A2D7108840079
:100AA0000008F0007007FF00710884007F088000D4
:100AB00042230800710884000008F0007007FF005E
:100AC000710884007F0880005A230800153026230F
:100AD00083160313A20009308312A800831622088C
:100AE000F7230F3983120313A300831622080F394B
:100AF0008312A2007526F426F8223608F800033087
:100B00000310F80CFF3E031D802D781C6E2D8316FC
:100B10002208F50015301F230800F101F2018316A9
:100B2000031305108514942D952D000083160313CF
:100B300005149A2D83120313050C0139F000720875
:100B4000073C013EA52D0310F00DFF3E031DA32D14
:100B500070087104F100AC2D0130FF007F08F2072E
:100B600008307202031C8F2D7108080004303823EE
:100B70000823F80085230823F90085230823FA00B9
:100B8000FD227808F7230F3983120313A900780890
:100B90000F39A8007908F7230F3983120313A60031
:100BA00079080F39A5007A08F7230F398312031348
:100BB000A3007A080F39A2000A30A700A400B101EF
:100BC000B20175260800C923A901A801A80A831645
:100BD0002408F80002300310F80CFF3E031DEB2D33
:100BE000781CF72D8312A301A30A0230FB2D0230DB
:100BF0008312A3000430A2007526F426361C052EAD
:100C00000430FF007F088316A40683123608F8001C
:100C100003300310F80CFF3E031D092E781808005E
:100C2000E72D0F302623F8007808F700073003106F
:100C3000F70CFF3E031D172E771C412EFE30FF00E0
:100C40007F08F8057808F5000F301F23781478081E
:100C5000F5000F301F232C2E2D2E00000F302623E1
:100C6000F80078183E2EF5010F301F23EF30FF00FB
:100C70007F0883120313B6050314080083120313BD
:100C80003616031008001024552EB623752615308D
:100C900083120313AF004B30AE00BE30AD00AD0B7E
:100CA0004F2EAE0B4F2EAF0B4F2E83120313361861
:100CB000452E3608AD0002300310AD0CFF3E031D7B
:100CC0005C2E2D1C662E00301F25552E3308AD00DE
:100CD00001300310AD0CFF3E031D692E2D18732E3D
:100CE0008627F426552EE023552E2930F3003208AE
:100CF000F6003108F700F40176304125F201F20ADE
:100D0000F50173088400831300087206031D8A2E00
:100D100042238B2E5A230130FF007F08F207013057
:100D2000FF007F08F50709307502031C812E730848
:100D3000840083130008031D9F2E4223A02E5A23F4
:100D4000773041250130F3020130FF007F08F407BE
:100D500008307402031C7C2E2E2308000030182358
:100D6000003004233030042312300423FB220430EB
:100D70001823283004230730042310300423FB22D7
:100D8000143018230030042300300423FB22831284
:100D900003133608F90004300310F90CFF3E031D5D
:100DA000CC2E791CD52EFB01D72E0F30FB007B08F3
:100DB0002623FA007A08F90007300310F90CFF3EE9
:100DC000031DDD2E7918EF2EFD30FF007F08831202
:100DD0000313B305FE30FF007F08B305080083123C
:100DE0000313B314E0230800F030FF007F088312E0
:100DF0000313B605F101F20105190C2F1B2F013069
:100E0000F1070318F20A0030F207C730F000082F8C
:100E1000F00B072F0B2F0C2F831203130519FF2E36
:100E200001307202F430031971020318192F3614BD
:100E30000800B6140800851D080083120313851DE1
:100E40002F2F0130F1070318F20A0030F207C730E4
:100E5000F0002A2FF00B292F2D2F2E2F1D2F0130C0
:100E60007202F430031971020318382F3615080086
:100E7000B6150800F100F301831603130510402F87
:100E80007108F000730A462F0310F00DFF3E031D9A
:100E9000442FF01F4F2F831603138514522F8316F0
:100EA00003138510532F831603130514572F582F40
:100EB00000000130FF007F08F30708307302031CB5
:100EC0003C2F8316031305108514662F672F00002F
:100ED0008316031305146C2F6D2F0000FF30F200F2
:100EE000720803197D2F831203138518792FF201DD
:100EF000702F00000130F202702F7208031D0800ED
:100F000083120313851C08003314080000302623C5
:100F100083120313AC002C08FB0007300310FB0CFA
:100F2000FF3E031D8E2F7B1C972FB31408002C0847
:100F300030060319080030302C06031DAE2FB625ED
:100F40001530FD004B30FC00BE30FB00FB0BA62F24
:100F5000FC0BA62FFD0BA62F0000080059302C0615
:100F60000319080000303823082383120313AC0050
:100F70008523082383120313AA00852308238312E1
:100F80000313AB00FD22831203132C080F39A200B8
:100F90002C08F7230F3983120313A3002A080F39F3
:100FA000A5002A08F7230F3983120313A6002B0884
:100FB0000F39A8002B08F7230F3983120313A90058
:100FC0000A30A700A4002C1CE92FB2012430B10084
:100FD000EC2F2430B200B10175262C08B0000800B7
:100FE00083120313B001B101B201B301B401B50121
:100FF0008316A001A101A201A301A4018301432E34
:02400E00183F59
:00000001FF
