:02000000F92FD6
:100C3200A92608008B26A9260800F40074087B2741
:100C42000800831203138510051008005727F300CC
:100C52009A26730808003627CB26B8274726302E57
:100C62000028F4007D26D0307B2774087B270800FB
:100C7200F6007608322675081E261926080000306E
:100C82005F262726F500F517750C0800FA15FA14E9
:100C92007A088312031386000800F50075085F26A0
:100CA2005727F6001B2676080800FA167A088312E0
:100CB20003138600FA017A0886000800F4007D26F4
:100CC200D0307B2774087B27BA26D1307B270800D7
:100CD200FA017A157A08831203138600FA017A0858
:100CE200860008007A167A157A08831203138600A2
:100CF200FA017A0886000800831603130514851486
:100D0200822E832E0000831603138510882E892ECF
:100D1200000008008316031305108F2E8316031399
:100D22008514932E831603130514972E982E000014
:100D320008008316031305109E2E831603138510D5
:100D4200A22E831603130514A62EA72E0000080058
:100D5200831603130510AD2E831603138510B12ECF
:100D6200831603130514B52E831603138514B92EA7
:100D72000800831603130510BE2E83160313851471
:100D8200C22E831603130514C62E83160313851071
:100D9200CA2E080083120313A901A90A0A30A80067
:100DA200A7010430A6000830A5000530A4000930D0
:100DB200A300A201F901F8017817080000303226D9
:100DC20000301E2630301E2612301E2628301E26E7
:100DD20007301E2610301E26192614303226003007
:100DE2001E2600301E2619260800F1007108840014
:100DF200801FFC2EFD2E092F710884000008F000D0
:100E02007007FF00710884007F0880007326142F8A
:100E1200710884000008F0007007FF007108840068
:100E22007F088000692608000F304E26F700F71F62
:100E32001B2F1C2F342FF701F5010F3039267714A1
:100E42007708F5000F303926262F272F00000F30A4
:100E52004E26F70077182E2F2F2F342FF5010F3043
:100E620039260314352F03100800073083120313A9
:100E72009F002F308316031385008601DF30810027
:100E8200FB01FA017A08831203138600FC01222671
:100E92004026031C4D2F4E2F502FDF26562F15278D
:100EA200031C542F552F562F4E2F0800F201F1012B
:100EB20083160313051085145E2F5F2F000083161F
:100EC20003130514642F7208F0007007F2008312F6
:100ED2000313050C01397204F2006F2F0130FF0079
:100EE2007F08F10708307102031C782F792F592FE0
:100EF20072080800F200F301831603130510812F14
:100F0200730AFF007208F000F1018A2F0310F00D3E
:100F1200F10DFF0B872FF01B8F2F932F83160313D7
:100F22008514962F831603138510972F83160313A8
:100F320005149B2F9C2F00000130FF007F08F30750
:100F420008307302031CA62FA72F7D2F83160313CD
:100F520005108514AC2FAD2F000083160313051462
:100F6200B22FB32F000083120313050808002930A3
:100F7200F3007908F4007808F500F6017430F626DB
:100F8200F201F20AF7017308840083130008720663
:100F9200031DCC2FCD2FCF2F7326D02F69260130E2
:100FA200FF007F08F2070130FF007F08F7070930D2
:100FB2007702031CDD2FDE2FC42F730884008313F6
:100FC2000008031DE52FE62FE82F7326E92F692677
:100FD2007530F6260130F3020130FF007F08F60774
:100FE20008307602031CF62FF72FBF2F5626080073
:0E0FF200F801F901FA01FB01FC0183012C2E2C
:02400E00183F59
:00000001FF
