:02000000F62FD9
:10083E00C22408009424C22408001625462630241B
:10084E000800F5007508162708007925F3007308CF
:10085E00080083120313CB14CB154B088600080037
:10086E00F5008624D0301627750816270800F700E5
:10087E0077083724760828241F240800F600760807
:10088E0056247925F70021247708080083160313D0
:10089E000510851083120313851005100800F5004E
:1008AE008624D030162775081627D324D130162764
:1008BE00080083120313CB164B088600DF30FF00AF
:1008CE007F08CB054B0886000800831203134B16D6
:1008DE004B154B088600FB30FF007F08CB054B08FD
:1008EE008600080000304524F9007908F80007302A
:1008FE000310F80CFF3E031D7F2C780C08008316A6
:10090E000313051485148B2C8C2C000083160313F3
:10091E008510912C922C00000800831603130510ED
:10092E00982C8316031385149C2C8316031305141D
:10093E00A02CA12C00000800831603130510A72C71
:10094E00831603138510AB2C831603130514AF2CDB
:10095E00B02C00000800EF30FF007F088312031355
:10096E00CB054B154B088600FB30FF007F08CB05EF
:10097E004B0886000800831603130510C62C831639
:10098E0003138510CA2C831603130514CE2C83165D
:10099E0003138514D22C0800831603130510D72CCD
:1009AE00831603138514DB2C831603130514DF2C17
:1009BE00831603138510E32C0800F800831203132B
:1009CE003008A2002F08A3002E08A4002D08A500B1
:1009DE002C08A6002B08A7002A08A8007808A90052
:1009EE003108C8003208C70046260800F300730815
:1009FE00F00004300310F00CFF3E031D012D0F30EC
:100A0E007005F10073080F39F20003300310F20D78
:100A1E00FF3E031D0D2D0310720D710408002230D0
:100A2E00F000F101700884000A3083138000013059
:100A3E00FF007F08F0070130FF007F08F107083044
:100A4E007102031C2B2D2C2D192D83120313C7019C
:100A5E00C80108001625831203134A08F800013056
:100A6E000310F80CFF3E031D372D781C3F2D402D33
:100A7E00482D0630A400A300A200C701C8014626D7
:100A8E00512D4A1C4B2D4C2D512D0930A400A30085
:100A9E00A200442D0800F100710884000008F00047
:100AAE0007300310F00CFF3E031D582D701C602DF7
:100ABE00612D6D2D710884000008F0007007FF0095
:100ACE00710884007F0880006C24782D71088400E2
:100ADE000008F0007007FF00710884007F08800096
:100AEE00B2240800F101F2018316031305108514D8
:100AFE00802D812D0000831603130514862D83127D
:100B0E000313050C0139F0007208073C013E912DCC
:100B1E000310F00DFF3E031D8F2D70087104F100C0
:100B2E00982D0130FF007F08F20708307202031C77
:100B3E00A12DA22D7B2D71080800073083120313FF
:100B4E009F002F308316031385008601DF3081004E
:100B5E0083120313CC01CB014B0886001030831691
:100B6E000313A00083120313CA014D2424247924F5
:100B7E00031CC22DC32DC82D831603132016CC269D
:100B8E00CE2DCF25031CCC2DCD2DCE2DC62D080060
:100B9E000F304524F9007908F80007300310F80CDF
:100BAE00FF3E031DD52D781CDD2DDE2D032EFE30D0
:100BBE00FF007F08F9057908F6000F303E247914FE
:100BCE007908F6000F303E24EC2DED2D00000F308D
:100BDE004524F9007918F42DF52D002EF6010F306D
:100BEE003E24EF30FF007F0883160313A005031485
:100BFE00042E831603132016031008000430562407
:100C0E002C2483120313B900A3242C248312031360
:100C1E00BA00A3242C2483120313BB0021248312B5
:100C2E00031339080F39B3003908FD240F39831225
:100C3E000313B6003A080F39B4003A08FD240F39F1
:100C4E0083120313B7003B080F39B5003B08FD2490
:100C5E000F3983120313B8003308AA000A30AB0011
:100C6E003708AC003408AD000A30AE003808AF00CB
:100C7E003508B000B101B2013608E424080029306D
:100C8E00F300831203134808F6004708F700F40137
:100C9E0076305225F201F20AF501730884008313AF
:100CAE0000087206031D5C2E5D2E5F2E6C24602ED6
:100CBE00B2240130FF007F08F2070130FF007F08E9
:100CCE00F50709307502031C6D2E6E2E542E730817
:100CDE00840083130008031D752E762E782E6C2447
:100CEE00792EB224773052250130F3020130FF0005
:100CFE007F08F40708307402031C862E872E4F2EB1
:100D0E0060240800A425FD01FD0A7D080319902E1C
:100D1E00912EA22E831203134A08FC0001300310F9
:100D2E00FC0CFF3E031D962E7C189E2E9F2EA12E90
:100D3E006F27A22E312583120313051DA72EA82E71
:100D4E00C22E0519AB2EAC2EA82EFD010A30AA001C
:100D5E00AB01AB0A0230AC000330AD000430AE0084
:100D6E000530AF000630B000B101B2014A080139BA
:100D7E00E424CC268C2E851DC52EC62E8C2E8519D0
:100D8E00C92ECA2EC62E8A2E0028003037240030D7
:100D9E00282430302824123028241F2404303724ED
:100DAE002830282407302824103028241F241430FB
:100DBE00372400302824003028241F2483160313E0
:100DCE002008F90004300310F90CFF3E031DEA2E33
:100DDE00791CF22EF32EF52EFB01F72E0F30FB00B1
:100DEE007B084524FA007A08F90007300310F90C45
:100DFE00FF3E031DFD2E7918052F062F112FFD30F6
:100E0E00FF007F0883120313CA05FE30FF007F0820
:100E1E00CA05152F83120313CA1431250800F200D8
:100E2E00F4018316031305101C2F740AFF007208B9
:100E3E00F000F101252F0310F00DF10DFF0B222F05
:100E4E00F01B2A2F2E2F831603138514312F831692
:100E5E0003138510322F831603130514362F372FE5
:100E6E0000000130FF007F08F40708307402031CF5
:100E7E00412F422F182F8316031305108514472F69
:100E8E00482F00008316031305144D2F4E2F00001C
:100E9E00FF30F3005D2F831203138518572F582F41
:100EAE005A2FF3015D2F00000130F3027308031D6A
:100EBE00612F622F522F7308031D662F672F6E2F1F
:100ECE0083120313851C6C2F6D2F6E2F4A1408008E
:100EDE000030452483120313C6004608F90007307C
:100EEE000310F90CFF3E031D772F791C7F2F802FE7
:100EFE00822FCA14F52F460849060319872F882F0B
:100F0E00F52F30304606031D8D2F8E2F9D2F052673
:100F1E001530FB004B30FA00BE30F900F90B952F5F
:100F2E00FA0B952FFB0B952F0000F52F5930460627
:100F3E00031DA22FA32FA42FF52F003056242C24EF
:100F4E0083120313C600A3242C2483120313C4009C
:100F5E00A3242C2483120313C5002124831203130C
:100F6E0046080F39BC004608FD240F3983120313BF
:100F7E00BF0044080F39BD004408FD240F39831209
:100F8E000313C00045080F39BE004508FD240F3974
:100F9E0083120313C100461CD52FD62FDA2FC201A0
:100FAE002430C300DD2F2430C200C3013E08AA0046
:100FBE000A30AB004008AC003D08AD000A30AE0070
:100FCE003F08AF003C08B0004208B1004308B20031
:100FDE004108E424831203134608C9000800831253
:100FEE000313C701C801C901CA01CB01CC0183019A
:020FFE00892E3A
:02400E00183F59
:00000001FF
