:02000000F92FD6
:100AA600E7250800C925E7250800F400740839275A
:100AB60008000E27F30073080800F400AD25D030B7
:100AC6003927740839270800F60076086025750866
:100AD600582553250800FB15FB147B0883120313C6
:100AE60086000800F50075088F250E27F6005525A7
:100AF6007608080083160313051085108312031366
:100B0600851005100800FB167B0883120313860068
:100B1600FB017B0886000800F400AD25D03039279C
:100B260074083927F825D13039270800FB017B15D1
:100B36007B08831203138600FB017B0886000800EE
:100B46007B167B157B08831203138600FB017B084B
:100B5600860008008316031305148514B22DB32DE1
:100B66000000831603138510B82DB92D0000080068
:100B760000308F250E27F6007608F50007300310A3
:100B8600F50CFF3E031DC22D750C080083160313DA
:100B96000510CD2D831603138514D12D831603134B
:100BA6000514D52DD62D0000080083160313051055
:100BB600DC2D831603138510E02D8316031305140D
:100BC600E42DE52D00000800831603130510EB2D18
:100BD600831603138510EF2D831603130514F32DC7
:100BE600831603138514F72D0800831603130510C7
:100BF600FC2D831603138514002E83160313051488
:100C0600042E831603138510082E0800831203137F
:100C1600A901A90A0A30A800A7010430A6000830D5
:100C2600A5000530A4000930A3000630A200FA0191
:100C3600F90179170800003060250030582530305A
:100C46005825123058252830582507305825103099
:100C56005825532514306025003058250030582576
:100C6600532508002230F000F101700884000A3094
:100C7600831380000130FF007F08F0070130FF007A
:100C86007F08F10708307102031C4A2E4B2E382EBE
:100C9600F901FA010800F3007308F00004300310AC
:100CA600F00CFF3E031D522E0F307005F100730845
:100CB6000F39F20003300310F20DFF3E031D5E2EC6
:100CC6000310720D710408009C2683120313051D80
:100CD6006D2E6E2E742E0519712E722E6E2EB7275E
:100CE600682E851D772E782E682E85197B2E7C2EF4
:100CF600782E092676276E25682E0028F8003526D8
:100D0600831203133008A2002F08A3002E08A400A4
:100D16002D08A5002C08A6002B08A7002A08A80065
:100D26007808A9003108FA003208F90076276E25FE
:100D360008000730831203139F002F308316031316
:100D460085008601DF308100FC01FB017B088312F0
:100D560003138600FD017D253526BB25031CB42E15
:100D6600B52EB72E1E26BD2EE526031CBB2EBC2E89
:100D7600BD2EB52E0800F100710884000008F000B1
:100D860007300310F00CFF3E031DC42E701CCC2E42
:100D9600CD2ED92E710884000008F0007007FF00E0
:100DA600710884007F088000A325E42E7108840062
:100DB6000008F0007007FF00710884007F088000BB
:100DC600992508000F307525F8007808F7000730D8
:100DD6000310F70CFF3E031DEB2E771CF32EF42EAB
:100DE6000C2FF801F5010F30672578147808F50007
:100DF6000F306725FE2EFF2E00000F307525F800F8
:100E06007818062F072F0C2FF5010F3067250314CE
:100E16000D2F03100800F101F201831603130510CC
:100E26008514152F162F00008316031305141B2F88
:100E360083120313050C0139F0007208073C013ECA
:100E4600262F0310F00DFF3E031D242F700871049A
:100E5600F1002D2F0130FF007F08F20708307202E3
:100E6600031C362F372F102F71080800F200F301EC
:100E76008316031305103F2F730AFF007208F00054
:100E8600F101482F0310F00DF10DFF0B452FF01B5C
:100E96004D2F512F831603138514542F83160313D6
:100EA6008510552F831603130514592F5A2F00004A
:100EB6000130FF007F08F30708307302031C642F1C
:100EC600652F3B2F83160313051085146A2F6B2F8E
:100ED6000000831603130514702F712F0000831270
:100EE6000313050808002930F3007A08F60079088C
:100EF600F700F4017630BE26F201F20AF501730816
:100F06008400831300087206031D8A2F8B2F8D2FF2
:100F1600A3258E2F99250130FF007F08F2070130A7
:100F2600FF007F08F50709307502031C9B2F9C2FD5
:100F3600822F7308840083130008031DA32FA42F98
:100F4600A62FA325A72F99257730BE260130F302B9
:100F56000130FF007F08F40708307402031CB42F29
:100F6600B52F7D2F8625080000308F255C2583123E
:100F76000313B900D8255C2583120313BA00D825BC
:100F86005C2583120313BB0055258312031339080E
:100F96000F39B30039084E260F3983120313B600F2
:100FA6003A080F39B4003A084E260F398312031354
:100FB600B7003B080F39B5003B084E260F398312A0
:100FC6000313B8003508AA000A30AB003708AC0096
:100FD6003408AD000A30AE003608AF003308B00062
:100FE600B1012430B200380881260800F901FA015F
:0A0FF600FB01FC01FD018301672EE1
:02400E00183F59
:00000001FF
